:020000040800F2
:10000000F8070020890100084B1B0008B118000800
:10001000491B000865030008E51E000800000000F9
:100020000000000000000000000000004F1B00085E
:1000300067030008000000004D1B0008511B00086A
:10004000A3010008A3010008A3010008A301000800
:10005000A3010008A3010008A3010008A3010008F0
:10006000A3010008A3010008A3010008A3010008E0
:10007000A3010008A3010008A3010008A3010008D0
:10008000A3010008A3010008A3010008A3010008C0
:10009000A3010008A3010008A3010008A3010008B0
:1000A000A3010008A3010008A3010008A3010008A0
:1000B000D11B0008DD1B0008A3010008A3010008F4
:1000C000A3010008A3010008A3010008A301000880
:1000D000A3010008A3010008A3010008A301000870
:1000E000A3010008A3010008A301000800F002F822
:1000F00000F03AF80AA090E8000C82448344AAF188
:100100000107DA4501D100F02FF8AFF2090EBAE885
:100110000F0013F0010F18BFFB1A43F0010318473B
:10012000B0210000D0210000103A24BF78C878C167
:10013000FAD8520724BF30C830C144BF04680C60ED
:10014000704700000023002400250026103A28BF35
:1001500078C1FBD8520728BF30C148BF0B60704739
:100160001FB51FBD10B510BD00F058F81146FFF7C0
:10017000F7FF01F00DFF00F076F803B4FFF7F2FF90
:1001800003BC00F07DF8000009488047094800479B
:10019000FEE7FEE7FEE7FEE7FEE7FEE7FEE7FEE737
:1001A000FEE7FEE704480549054A064B7047000094
:1001B000CD1B0008ED000008F8010020F807002022
:1001C000F8030020F80300204FF0000200B51346AA
:1001D00094469646203922BFA0E80C50A0E80C5067
:1001E000B1F12001BFF4F7AF090728BFA0E80C5018
:1001F00048BF0CC05DF804EB890028BF40F8042B11
:1002000008BF704748BF20F8022B11F0804F18BF7D
:1002100000F8012B7047704770477047754600F033
:100220002BF8AE4605006946534620F00700854688
:1002300018B020B5FFF7B6FFBDE820404FF000062C
:100240004FF000074FF000084FF0000B21F00701BE
:10025000AC46ACE8C009ACE8C009ACE8C009ACE801
:10026000C0098D46704710B50446AFF300802046A4
:10027000BDE81040FFF781BF00487047980100209B
:1002800001491820ABBEFEE72600020070470000BF
:1002900070B5044600688168C943C90717D18168F1
:1002A00021F00101816000F0A9FB05460AE000BFD2
:1002B00000F0A4FB401B022804D920688068C043DA
:1002C000C00706D020688068C043C007F0D0002077
:1002D00070BDA06A40F01000A062E06A40F001002A
:1002E000E062012070BD0000F8B5002604460096CB
:1002F00000688168C943C9072DD0816841F00101B8
:100300008160164816490068B0FBF1F000E0401E1D
:1003100000900028FBD100F071FB054616E000BFFD
:1003200000F06CFB401B022810D920688068C04395
:10033000C0070BD0A06A40F01000A062E06A40F055
:100340000100E06284F824600120F8BD2068806824
:10035000C043C007E4D10020F8BD00001400002015
:1003600040420F00FEE7704772B6FEE7F8B5002482
:10037000009490F824202546012A12D0012280F80A
:1003800024204A681F23072A0DD20668776B521E65
:1003900002EB820293409F430B6893401F437763B5
:1003A00019E00220F8BD06680D2A0AD2376BD21F69
:1003B00002EB820293409F430B6893401F433763D5
:1003C00009E0F76A0D3A02EB820293409F430B6803
:1003D00093401F43F7620A68072306680A2A0AD374
:1003E000F7680A3A02EB420293409F438B689340BE
:1003F0001F43F76008E0376902EB420293409F43D6
:100400008B6893401F4337610A68102A01D0112A74
:1004100020D1124B02689A4217D193681B0219D45B
:10042000936843F4000393600968102912D10C49C2
:100430000C4A0968B1FBF2F101EB8101490000E0CF
:10044000491E00910029FBD104E0816A41F020019E
:100450008162012480F824502046F8BD0024014028
:100460001400002040420F000068C06C704700007C
:100470002DE9F0414FF0000704003D467ED0A06A10
:10048000002628B9E66284F82460204600F07EF851
:100490002046FFF7FDFEA16AC90600D420B1A06A7C
:1004A00040F01000A06269E0A16A21F4885141F097
:1004B0000201A1626268E169237B0A4347EA4301C2
:1004C0000A43A1684FF48077B94209D0012907D0C7
:1004D0005FF0000194F814C0BCF1010F02D00AE0F3
:1004E0003946F7E7F3B1A36A43F02003A362E36A56
:1004F00043F00103E3622368D3F804C02CF4694C91
:100500004CEA010CC3F804C021688B68DFF870C0A6
:1005100003EA0C0313438B60A168B9420BD0012995
:1005200009D00CE0DFF85CC0A3690CEB43330B434C
:1005300043F40061DFE7218A0D05A5F580152168E8
:10054000CB6A23F470032B43CB62216889680E4B7E
:100550001940914208D1E662A16A21F0020141F0FE
:100560000101A162BDE8F081A06A20F0020040F024
:100570001000A062E06A40F00100E0620120F1E7B3
:10058000FDF7E1FF00E0FFFFFE0E1FFF10B586B094
:10059000002100910191029103911A4C03681A49BC
:1005A00003221A48A34211D18B6943F400738B6173
:1005B0008B6903F4007304938B6943F004038B612C
:1005C000896901F004010491012113E0104CA34258
:1005D00015D18B6943F480638B618B6903F480636D
:1005E00004938B6943F004038B61896901F0040172
:1005F00004910221CDE90012694600F009F906B024
:1006000010BD00000024014000100240000801401D
:10061000002801402DE9F84300270D4604460097C5
:1006200000F0ECF9804620688168C90508D5A06A09
:1006300040F02000A06284F824700120BDE8F88317
:100640004168C90503D4C06A10F4700F2AD0022093
:1006500000F072FA3B490968B1FBF0F620680369C3
:1006600039490B424FEA61014FEAA1121FD1C36819
:100670004FEA611C13EA0C0F19D103690B4225D113
:10068000C068104222D1142023E0681C0AD02DB18A
:1006900000F0B4F9A0EB0800A84203D92068006874
:1006A000800725D5206800688007EED52DE0036916
:1006B0000B4202D1C168114206D0026923490A42A5
:1006C00006D1C068084203D1542002E0292000E08E
:1006D000FC204643009816E0681C11D02DB100F0B4
:1006E0008DF9A0EB0800A8420AD90098B04207D2C1
:1006F000A06A40F00400A06284F8247003209DE703
:100700000098401C0090B042E6D321686FF01200C0
:100710000860A06A40F40070A06220688068C0F39E
:10072000424007280CD1207B50B9A06A20F4807089
:10073000A062A06AC00403D4A06A40F00100A062D5
:1007400000207BE7140000202449922449922400D1
:1007500070B5044690F8240001280DD0012084F8DB
:1007600024002046FFF7C0FD02004FF0000005D036
:1007700084F82400104670BD022070BDA16A40F2CA
:100780000123994341F48071A1621F4D23681F49E1
:10079000AB4218D10E6816F4702F14D0A66A46F436
:1007A0008016A6620E68760505D5A66A26F4005660
:1007B00046F48056A662A66AF6040AD5E66A26F0D2
:1007C0000606E66206E0A66A26F48016A6625E6861
:1007D000E9E7E06284F824006FF002001860206806
:1007E0008368C3F34243072B05D1A84208D10968A7
:1007F00011F4702F04D0816841F480118160B9E751
:10080000816841F4A001F9E7002801400424014077
:100810002DE9F84FDFF8B8910024A9F1040B234625
:100820000F2709F1040AABF1040EC9E00125A54028
:100830002A40AA427DD1674ED1F804C0ACEB06082D
:10084000B44532D014DCBCF1030F3AD009DCBCF162
:10085000000F2AD0BCF1010F1CD0BCF1020F31D126
:100860001DE0BCF1110F17D0BCF1120F2AD119E015
:10087000B8F5881F19D006DCB8F5803F15D0B8F55B
:10088000801F1FD111E0B8F5001F0ED0B8F5041F6E
:1008900018D10AE0CB6815E0CB681B1D12E0CB68CD
:1008A00008330FE0CB680C330CE08B682BB1012BC5
:1008B0004FF0080303D0456104E0042302E0056122
:1008C00000E00023FF2A01D8064601E000F10406FB
:1008D0004FEA840501D9A5F12005D6F8008007FA72
:1008E00005FC28EA0C0803FA05F548EA0508C6F8ED
:1008F00000804D68ED0062D5374DAE6946F00106C7
:10090000AE61AD6924F0030605F001050095334D95
:1009100006EB050CDCF80850A607360F07FA06F8B8
:1009200025EA0805DFF8B880404503D14FF00008FC
:1009300017E044E0DFF8AC80404502D14FF00108F9
:100940000FE0DFF8A480404502D14FF0020808E034
:10095000DFF89880404502D14FF0030801E04FF0E6
:10096000040808FA06F848EA0508CCF808804D683B
:10097000D9F80060ED024D4601D5164300E09643DC
:100980002E604D68DAF80060AD02554601D5164379
:1009900000E096432E604D68DBF80060AD035D46D5
:1009A00001D5164300E096432E604D68DEF80060E6
:1009B000ED03754601D5164300E096432E60641C96
:1009C0000D682A46E5407FF431AFBDE8F88F00009E
:1009D0000804014000001110001002400000014016
:1009E00000080140000C01400010014000140140CB
:1009F0000AB1016170470904FBE700000148806803
:100A00007047000008000020024881680278114405
:100A10008160704708000020074810B5016841F068
:100A200010010160032000F075F80F2000F006F8B7
:100A300000F024F8002010BD0020024070B50D4DDC
:100A400004464FF47A712878B1FBF0F00A4909683E
:100A5000B1FBF0F000F0A4FB48B9102C07D2002243
:100A60002146501E00F036F800206C6070BD012059
:100A700070BD000008000020140000200C4808B5DC
:100A8000816941F001018161816901F001010091F9
:100A9000C16941F08051C161C06900F0805000908F
:100AA0000448416821F0E06141F00071416008BDF7
:100AB0000010024000000140002809DB00F01F0286
:100AC000012191404009800000F1E020C0F80011B0
:100AD00070470000F0B40E4B1B680C46C3F30223B2
:100AE000C3F10705042D00D90425191D072901D2DA
:100AF000002300E0DB1E012606FA05F1491E214015
:100B000099409E40761E16403143F0BC01F0EBB98F
:100B10000CED00E0064900F0070208684FF6FF03FD
:100B2000184040EA0220034A104308607047000062
:100B30000CED00E00000FA0510B501460020234C42
:100B4000012922D0022939D010291DD161682268DB
:100B5000D20119D51E48C1F38342C903805C0AD56E
:100B600061681B4AC1F34041921E515C194AB2FBB5
:100B7000F1F1484301E0184948436168490203D450
:100B800040000321B0FBF1F010BD226AC2F3012145
:100B9000012903D1920701D5C80310BD022905D14F
:100BA000626A920702D549F6404010BD0329FCD184
:100BB00021688903F9D54FF2244010BD00F02AF9CD
:100BC0006168C1F38131491C4900DBE70010024034
:100BD000A622000800127A0000093D002DE9F84322
:100BE00005460078354CC00754D0E0690026C000A7
:100BF00008D4E06940F08050E061E069012600F02F
:100C0000805000902E480168C90512D401688046C2
:100C100041F480710160FFF7F1FE074605E000BF77
:100C2000FFF7ECFEC01B642823D8D8F80000C005ED
:100C3000F6D5206A10F4407021D0A98801F44071E3
:100C400081421CD0206A1F49012220F440700A60B2
:100C500000220A602062C00711D0FFF7CFFE0746CE
:100C600041F2883808E000BFFFF7C8FEC11B4145CC
:100C700002D90320BDE8F883206A8007F4D5206AF2
:100C8000696820F44070084320621EB1E06920F0DA
:100C90008050E0612878800705D56068A96820F455
:100CA0004040084360602878C00605D56068E96860
:100CB00020F48000084360600020DBE70010024061
:100CC00000700040400442422DE9F0470F46050005
:100CD00061D0434E306800F00700B84209D2306856
:100CE00020F0070038433060306800F00700B84259
:100CF00051D128683B4C810712D5400703D5606865
:100D000040F4E06060602878000703D5606840F434
:100D1000605060606068A96820F0F000084360607F
:100D20002878C00728D06868012810D021680228D8
:100D300010D0890700292EDA616821F003010143F0
:100D40006160FFF75BFE804641F288390DE0216863
:100D50008903EFE78901EDE7FFF750FEA0EB0801FB
:100D6000494502D90320BDE8F0876068696800F052
:100D70000C00B0EB810FEFD1306800F00700B842F3
:100D80000BD9306820F0070038433060306800F03D
:100D90000700B84201D00120E5E72878400705D5D3
:100DA0006068E96820F4E060084360602878000724
:100DB00006D56068296920F4605040EAC10060608F
:100DC00000F038F86168084AC1F30311515CC8406B
:100DD0000649086006480068FFF730FE0020C2E7B9
:100DE0000020024000100240B6220008140000203B
:100DF0000C0000200448054900684968044AC1F312
:100E00000221515CC84070471400002000100240CD
:100E1000C62200080448054900684968044AC1F32D
:100E2000C221515CC84070471400002000100240ED
:100E3000C62200080E4A51680E4801F00C03042B2C
:100E400011D0082B0FD10C48C1F38343C903C05CF8
:100E50000AD55168084AC1F34041921E515C054AC7
:100E60005043B0FBF1F0704704494843704700001D
:100E70000010024000127A009422000800093D0090
:100E80002DE9F84F040070D02078C04DC00749D03C
:100E90006868C0F38100012807D06868C0F381004A
:100EA000022809D16868C00306D52868800339D5AF
:100EB00060680028E7D035E06068B0F5803F0BD06F
:100EC00010B1B0F5A02F11D0286820F48030286030
:100ED000286820F4802002E0286840F480302860F0
:100EE000606890B1FFF78AFD06460AE0286840F482
:100EF00080202860F0E700BFFFF780FD801B64289A
:100F000073D828688003F7D50CE0FFF777FD064615
:100F100005E000BFFFF772FD801B6428F0D8286849
:100F20008003F7D420789A4E80074FF001094FF0E4
:100F3000000839D5686810F00C0F07D06868C0F356
:100F40008100022809D16868C00306D42868800798
:100F500014D52069012808D110E02069B0B1C6F885
:100F60000090FFF74BFD074605E00AE1FFF746FD5D
:100F7000C01B0228C4D828688007F7D52868616993
:100F800020F0F80040EAC10028600DE0C6F80080BB
:100F9000FFF734FD074604E0FFF730FDC01B0228D1
:100FA00023D828688007F7D4207800072CD5794803
:100FB000A169D9B1C0F80090FFF720FD074604E011
:100FC000FFF71CFDC01B02280FD8686A8007F7D501
:100FD00071484FF4FA510068B0FBF1F0009000BF87
:100FE0000098411E0091FAD20EE080E0C0F8008027
:100FF000FFF704FD074604E0FFF700FDC01B0228D1
:1010000075D8686A8007F7D42078400760D5E8690A
:101010000027C00008D4E86940F08050E861E86922
:10102000012700F0805000905C480168C90513D486
:101030000168834641F480710160FFF7DFFC82465E
:1010400006E000BFFFF7DAFCA0EB0A0064284ED8E8
:10105000DBF80000C005F5D5E06801280AD008B12A
:10106000052813D0286A20F001002862286A20F0A1
:10107000040002E0286A40F001002862E06841F2C2
:10108000883B98B1FFF7BAFC82460BE0286A40F033
:1010900004002862EEE700BFFFF7B0FCA0EB0A01F6
:1010A00059455AD8286A8007F6D50CE0FFF7A6FC08
:1010B000824605E0FFF7A2FCA0EB0A0159454CD897
:1010C000286A8007F6D41FB1E86920F08050E861F3
:1010D000E06988B36968C1F38101022944D002281C
:1010E000C6F8608004D0FFF789FC044638E034E09D
:1010F000FFF784FC074604E0FFF780FCC01B0228D2
:101100002BD828688001F7D4206AB0F5803F05D13C
:101110006868A16820F4003008436860D4E90801D9
:101120000843696821F4741108436860C6F8609048
:10113000FFF764FC044606E025E000BFFFF75EFC15
:10114000001B022809D828688001F7D51BE000BFE2
:10115000FFF754FC001B022802D90320BDE8F88FDA
:1011600028688001F4D40EE00128F7D06868226A6C
:1011700000F48031914204D1616A00F47010884219
:1011800001D00120EAE70020E8E70000001002405B
:1011900000004242800442421400002000700040DF
:1011A00010B5401EB0F1807F01D3012010BD4FF07B
:1011B000E02460610F21601700F095FE0020A0611F
:1011C00007202061002010BD7047704770B590F86F
:1011D0003C20012A26D0012480F83C40022280F8DD
:1011E0003D2003685A689D6822F070060A68324301
:1011F0005A600D4B02689A4208D0B2F1804F05D078
:101200000A4B9A4202D00A4B9A4204D1496825F00F
:1012100080031943916080F83D40002180F83C1024
:10122000084670BD022070BD002C01400004004043
:101230000008004010B5040003D094F83D0010B140
:1012400007E0012010BD002084F83C00204600F09B
:101250001FF8022084F83D00211D206800F0C4FC26
:10126000012084F8460084F83E0084F83F0084F8AA
:10127000400084F8410084F8420084F8430084F878
:10128000440084F8450084F83D00002010BD0000B3
:1012900008B50068B0F1804F12D10A48C16941F029
:1012A0000101C161C069002200F0010000901146F7
:1012B0001C20FFF70FFCBDE808401C20FFF7FCBB1B
:1012C00008BD00000010024090F83D10012901D037
:1012D00001207047022180F83D100168CA6842F081
:1012E0000102CA6000680B49884208D0B0F1804F03
:1012F00005D00949884202D00849884204D1816852
:1013000001F00701062903D0016841F001010160E5
:1013100000207047002C01400004004000080040FD
:1013200070B5044690F83C000025012817D001262E
:1013300084F83C60022084F83D002068826822F036
:10134000770222F47F4282600868502838D00DDC92
:1013500020284FD005DC90B3102811D14AE002209C
:1013600070BD302846D040280AD13BE060282FD0FD
:1013700070280DD0B0F5805F03D0B0F5005F12D0BB
:10138000012584F83D60002084F83C00284670BDAB
:10139000CB68D1E90121206800F06FFC20688168EA
:1013A00041F0770109E0CB68D1E90121206800F024
:1013B00064FC2068816841F480418160E1E719E0C4
:1013C000CA684968206800F00DFD5021206806E0D9
:1013D000CA684968206800F016FD6021206800F0A6
:1013E00056FCCEE7CA684968206800F0FBFC402143
:1013F0002068F4E7226801461046F0E770472DE9BF
:10140000F04104460068C66805694FF00007A90767
:1014100013D5B10711D5F91E01610120207720688D
:1014200080698007204602D0FFF7E8FF04E000F063
:10143000C5F8204600F080F92777680716D57007B1
:1014400014D521686FF0040008610220207720681D
:10145000806910F4407F204602D0FFF7CFFF04E000
:1014600000F0ACF8204600F067F92777280715D57B
:10147000300713D521686FF0080008610420207739
:101480002068C0698007204602D0FFF7B7FF04E05C
:1014900000F094F8204600F04FF92777E80616D5BB
:1014A000F00614D521686FF010000861082020773D
:1014B0002068C06910F4407F204602D0FFF79EFFED
:1014C00004E000F07BF8204600F036F92777E807C3
:1014D00008D0F00706D021686FF0010008612046AF
:1014E00000F07AF9280608D5300606D521686FF095
:1014F000800008612046FFF767FE680608D5700681
:1015000006D521686FF040000861204600F065F9BB
:10151000A8060AD5B00608D521686FF0200008613A
:101520002046BDE8F041FFF750BEBDE8F081000065
:1015300010B586B0002100910191029103911A4CDF
:1015400003681A4902221A48A34219D18B6943F051
:1015500008038B618969039201F00801049130212D
:10156000CDE900126946FFF753F91248416821F4AA
:10157000406141F0E06141F40061416006B010BD9E
:101580000D4CA342FAD18B6943F008038B61896942
:10159000039201F0080104914021CDE9001269464F
:1015A000FFF736F9EAE700000004004000100240AF
:1015B000000C01400000014000080040704770B579
:1015C000044690F83C0000260D4601280FD001206B
:1015D00084F83C006AB1042A1DD0082A2FD00C2AB6
:1015E0003FD00126002084F83C00304670BD022028
:1015F00070BD206800F054FB2068816941F008014B
:1016000081612068816921F004018161206881691C
:101610002A69114311E0206800F06AFB20688169A3
:1016200041F4006181612068816921F480618161F8
:10163000206881692A6941EA02218161D2E7206834
:1016400000F082FB2068C16941F00801C161206897
:10165000C16921F00401C1612068C1692A6911438F
:1016600011E0206800F09CFB2068C16941F4006132
:10167000C1612068C16921F48061C1612068C169CC
:101680002A6941EA0221C161ACE710B5040003D028
:1016900094F83D0010B107E0012010BD002084F84F
:1016A0003C00204600F01EF8022084F83D00211D79
:1016B000206800F099FA012084F8460084F83E0082
:1016C00084F83F0084F8400084F8410084F8420028
:1016D00084F8430084F8440084F8450084F83D0011
:1016E000002010BD08B5114A01681148914211D17E
:1016F000C16941F00201C161C069002200F002002D
:10170000009011461D20FFF7E5F9BDE808401D20B7
:10171000FFF7D2B9074A914207D1C16941F00401EC
:10172000C161C06900F00400009008BD00040040E1
:1017300000100240000800407047000010B5044649
:10174000022249B104290ED0082913D094F841008F
:10175000012816D0012010BD94F83E000128F9D1CF
:1017600084F83E200FE094F83F000128F2D184F87D
:101770003F2008E094F840000128EBD184F8402095
:1017800001E084F841200122206800F069FA0F4945
:101790002068884203D1426C42F4004242642068CF
:1017A000884208D0B0F1804F05D00949884202D064
:1017B0000849884204D1816801F00701062903D055
:1017C000016841F001010160002010BD002C0140C2
:1017D00000040040000800407047704770B50400E6
:1017E00004D094F84100002510B106E0012070BD3E
:1017F00084F84050204600F023F8242084F841006B
:101800002068C16821F40051C160204600F00EFB41
:101810002068016921F4904101612068416921F04B
:101820002A0141612068C16841F40051C1606564CA
:10183000202084F8410084F842006563002070BDD8
:1018400030B585B00024009401940294039400689C
:101850001449884224D11448816941F4804181614E
:10186000816901F480410491816941F00401816141
:1018700080690E4D00F0040004904FF40070009059
:10188000022001900320039069462846FEF7C0FF1E
:101890002815CDE90004694628460294FEF7B8FFF2
:1018A00005B030BD00380140001002400008014082
:1018B000FEE700003EB50024104800940194029415
:1018C0000D498460016004730475012505614FF4BE
:1018D00060214460C161FEF7CBFD08B1FEF744FD15
:1018E000CDE90045694605480294FEF73FFD002812
:1018F00001D0FEF739FD3EBD002401401800002054
:101900003EB5002410480094019402940D4984606F
:10191000016004730475012505614FF46021446082
:10192000C161FEF7A5FD08B1FEF71EFD0095CDE9EA
:10193000015469460448FEF719FD002801D0FEF75E
:1019400013FD3EBD002801404800002030B585B0A1
:10195000002418480094019402940394816941F092
:1019600020018161816901F020010491816941F0C8
:1019700004018161816901F004010491816941F0F0
:101980000801816180690C4D00F00800049001227B
:10199000F4212846FFF72CF8F42000900120CDE92F
:1019A00001040220039069462846FEF731FF05B086
:1019B00030BD0000001002400008014010B586B0A4
:1019C00000241648009401940294039404944FF068
:1019D0008041059401604721C0E9011440F21F31A4
:1019E000C0E903148461FFF725FC08B1FEF7BCFCD5
:1019F0004FF48050009069460848FFF791FC08B109
:101A0000FEF7B2FC049404A904480594FFF7DEFB3A
:101A1000002801D0FEF7A8FC06B010BD7800002019
:101A200010B58AB0002407941C2168460894FEF77C
:101A3000CBFB1A48184901604721C0E9011440F264
:101A40001F31C0E903148461FFF71FFE08B1FEF7E0
:101A50008BFC079407A911480894FFF7B7FB08B15E
:101A6000FEF782FC6020CDE9000402940022694662
:101A70000A480494FFF7A3FD08B1FEF775FC0422A1
:101A800069460648FFF79BFD08B1FEF76DFC034869
:101A9000FFF74EFD0AB010BD00040040C00000205A
:101AA00010B58AB0002407941C2168460894FEF7FC
:101AB0008BFB1648144901604721C0E9011440F22C
:101AC0001F31C0E903148461FFF7DFFD08B1FEF7A1
:101AD0004BFC079407A90D480894FFF777FB08B162
:101AE000FEF742FC6020CDE9000402940022694622
:101AF00006480494FFF763FD08B1FEF735FC034880
:101B0000FFF716FD0AB010BD0008004008010020D4
:101B10000C4810B50A4901604FF4E13141600021E1
:101B200081600C22C160C0E904128161C161FFF7CC
:101B300055FE002803D0BDE81040FEF715BC10BDCF
:101B40000038014050010020FEE7FEE77047704773
:101B5000FEF75ABF30B593B028216846FEF734FB34
:101B600014210AA8FEF730FB002501200F951095DF
:101B70001195010412958DE8230004904FF4E010B4
:101B8000CDE90810022407946846FFF779F908B1F7
:101B900072B6FEE70AA90F2081E831004FF4806099
:101BA000CDE90D0502210AA8FFF78EF808B172B63B
:101BB000FEE74FF4004011900F940FA8FFF70EF8C6
:101BC000002801D072B6FEE713B030BD70470000A8
:101BD0000148FFF714BC0000780000200148FFF71F
:101BE0000EBC0000C0000020F0B50268194B1A4C72
:101BF0001A4D4FF08047984205D0B84203D0A0421A
:101C000001D0A84203D122F070064A6832439842BC
:101C100005D0B84203D0A04201D0A84203D122F49B
:101C20004074CA6822434C6922F080022243026059
:101C30008A68C2620A688262984201D109690163B6
:101C4000012141610169C90703D0016921F0010146
:101C50000161F0BD002C014000040040000800407C
:101C600010B501F01F030121046A99408C430462FE
:101C7000016A9A401143016210BD10B5846842EABE
:101C8000032224F47F440A432243826010BD826809
:101C900022F070020A4342F00701816070470000A1
:101CA00030B5036A026A22F0010202624268846966
:101CB00024F073050C682C4323F002058B682B433A
:101CC0000A4DA8420BD123F00805CB6822F44072DC
:101CD0002B434D6923F0040315438A692A4342606C
:101CE000846149684163036230BD0000002C0140FB
:101CF00030B5026A036A23F0100303624368846903
:101D00000D6824F4E64444EA05248D6822F020029C
:101D100042EA05120B4DA8420ED1CD6822F0800296
:101D200042EA05124D6923F4406343EA85038D6955
:101D300022F0400243EA850343608461496881637D
:101D4000026230BD002C014030B5036A026A22F401
:101D5000807202624268C46923F4007324F0730540
:101D60000C682C438D6843EA05230C4DA8420ED124
:101D7000CD6823F4006343EA05234D6922F4405201
:101D800042EA05128D6923F4806342EA051242603B
:101D9000C4614968C163036230BD0000002C01408A
:101DA00030B5046A026A22F4805202624268C36952
:101DB0000D6823F4E64343EA05238D6824F40054B8
:101DC00044EA0534064DA84204D14D6922F480420C
:101DD00042EA85124260C36149680164046230BD11
:101DE000002C014010B5036A046A24F00104046267
:101DF000846924F0F00444EA021423F00A020A433E
:101E00008461026210BD10B5036A046A24F01004F4
:101E10000462846923F0A00324F4704444EA02328B
:101E200043EA01118261016210BD000070B50446F1
:101E300000680169E26821F44051114301612169A0
:101E4000A0680843616908432168CA6841F20C63CD
:101E50009A430243CA6020684169A26921F4407133
:101E6000114341611E492068884202D1FEF7D2FF2A
:101E700001E0FEF7BFFF00EBC00101EB001260685C
:101E800064218000B2FBF0F3B3FBF1F36FF01806AE
:101E90007343B2FBF0F5B2FBF0F605EB830532239A
:101EA00003EB0515B5FBF1F5B6FBF1F605F0F00512
:101EB00005EB0615B2FBF0F6B2FBF0F0B0FBF1F06B
:101EC0006FF01802504306EB800003EB0010B0FBEC
:101ED000F1F0216800F00F002844886070BD000018
:101EE00000380140FEE70907090E002804DB00F175
:101EF000E02080F80014704700F00F0000F1E020AF
:101F000080F8141D7047000070B515460E46C2B229
:101F100004210B48FEF76CFD304600F0E5F8094C53
:101F20002168C862E0604FF0FF31304600F073F97D
:101F300000F0DAF8216848630348056070BD0000CE
:101F400000080140080100200400002070B515467B
:101F50000E46C2B220210B48FEF74AFD304600F083
:101F6000C3F8094C2168C862E0604FF0FF31304689
:101F700000F051F900F0B8F82168486303480560A3
:101F800070BD000000080140C000002004000020D7
:101F9000FEF742FDFFF7DEFDFFF7D8FCFFF78AFCF6
:101FA000FFF7AEFCFFF7B4FDFFF708FDFFF738FDC4
:101FB000FFF776FD4348FFF787F94348FFF784F9B9
:101FC00000214048FFF7BAFB00213F48FFF7B6FB6E
:101FD0003C494FF448740868C4623B48CC600268CE
:101FE000D462C4600968FA224A6300684263DFF879
:101FF000DC90374D4FF0FF364FF4D76740F23A7818
:102000003448FEF7A5FB31463248FEF703FB314862
:10201000FEF72AFA28803048FEF79AFB31462E4810
:10202000FEF7F8FA2C48FEF71FFA80B2688029887C
:10203000A1F6AC52962A0BD840F2D662904207D352
:1020400040F24E72904203D82246494600200EE0EC
:10205000A1F2A462642A11D840F6485398420CD3E6
:1020600040F64263984208D8224649460120FFF7CD
:102070004BFF22464946002020E008B121B10FE085
:1020800022464946002006E0B84209D3404507D819
:10209000224649460120FFF737FF224649460CE019
:1020A000642AADD8B842ABD34045A9D80021224616
:1020B0000846FFF729FF224600210120FFF746FFCF
:1020C0009EE7000008010020C000002000002F440F
:1020D000000000201800002048000020014800F007
:1020E00068B800BF0000C07FC10DD1F19E0206DBC1
:1020F0004FEA002343F0004323FA02F07047004206
:1021000007D54FEA4001B1F1FE4F02D24FF0000077
:10211000704710B500F007F84992248000207047FE
:102120006FEA200070470EF1020E2EF0030E5EF8EB
:10213000044B244204D44FEA4102B2F17F4F11D83C
:102140004FEA4003B3F17F4F0CD80ED14FEAD07C59
:10215000B2F17F4F0CEB4C0C0CF1020C08BF4CEBB6
:10216000D17C04E04FF0080C01E04FEAD17C0CEB8D
:102170004C0324FA03F404F00704B4F1040C06D26F
:102180000EEB840CBDE810404CF0010C6047DFE81A
:102190000CF0070802024FF00040A0F5800010BDCF
:1021A0000846420018BFD2F1807288BF00F000409C
:1021B00010BD0CF00F03092B08BF082000F0518060
:1021C0000A2B0BD0082B18BF704708BF1CF0400F1C
:1021D0000AD04FF000004FF0000170471CF0400F94
:1021E00018BF4FF0004070471CF0100F08D020F0CF
:1021F000704300F07F4242EAD3014FEA43707047D8
:1022000000F0604021F07F4242EA000201F07F408E
:1022100040EA727070474FF0FF0212EAD0521CBFC2
:1022200092F0FF038B42C2BFD14200EBC150704716
:10223000002A0AD0002B0BD0002900F00040A4BFD8
:1022400040F0FE4040F40000704700F0004070474E
:1022500043024FF00B0C18BF4CF0806C7FF43EAF84
:1022600070471CF4801F11D01CF4E02F03D06FEADC
:10227000CC31490070474FF04050EFF3008222F01C
:10228000704242EA000282F3008870474FF000007B
:102290007047010202030405060708090A0B0C0D2A
:1022A0000E0F1010010202030405060708090A0BAD
:1022B0000C0D0E0F101000000000000000000102C5
:1022C00003040607080900000000010203040000DF
:1022D000F02200080000002018000000280100087B
:1022E0000823000818000020E0070000440100084F
:1022F00000000000000000000100000010000000CD
:082300000000000000127A0049
:04000005080000ED02
:00000001FF
