:020000040800F2
:10000000B007002089010008831900085D17000867
:100010008119000865030008B11C000800000000F9
:100020000000000000000000000000008719000828
:1000300067030008000000008519000889190008FE
:10004000A3010008A3010008A3010008A301000800
:10005000A3010008A3010008A3010008A3010008F0
:10006000A3010008A3010008A3010008A3010008E0
:10007000A3010008A3010008A3010008A3010008D0
:10008000A3010008A3010008A3010008A3010008C0
:10009000A3010008A3010008A3010008A3010008B0
:1000A000A3010008A3010008A3010008A3010008A0
:1000B000091A0008151A0008A3010008A301000886
:1000C000A3010008A3010008A3010008A301000880
:1000D000A3010008A3010008A3010008A301000870
:1000E000A3010008A3010008A301000800F002F822
:1000F00000F03AF80AA090E8000C82448344AAF188
:100100000107DA4501D100F02FF8AFF2090EBAE885
:100110000F0013F0010F18BFFB1A43F0010318473B
:10012000381F0000581F0000103A24BF78C878C15B
:10013000FAD8520724BF30C830C144BF04680C60ED
:10014000704700000023002400250026103A28BF35
:1001500078C1FBD8520728BF30C148BF0B60704739
:100160001FB51FBD10B510BD00F058F81146FFF7C0
:10017000F7FF01F0F3FD00F076F803B4FFF7F2FFAC
:1001800003BC00F07DF8000009488047094800479B
:10019000FEE7FEE7FEE7FEE7FEE7FEE7FEE7FEE737
:1001A000FEE7FEE704480549054A064B7047000094
:1001B000051A0008ED000008B0010020B00700207B
:1001C000B0030020B00300204FF0000200B513463A
:1001D00094469646203922BFA0E80C50A0E80C5067
:1001E000B1F12001BFF4F7AF090728BFA0E80C5018
:1001F00048BF0CC05DF804EB890028BF40F8042B11
:1002000008BF704748BF20F8022B11F0804F18BF7D
:1002100000F8012B7047704770477047754600F033
:100220002BF8AE4605006946534620F00700854688
:1002300018B020B5FFF7B6FFBDE820404FF000062C
:100240004FF000074FF000084FF0000B21F00701BE
:10025000AC46ACE8C009ACE8C009ACE8C009ACE801
:10026000C0098D46704710B50446AFF300802046A4
:10027000BDE81040FFF781BF004870474C010020E7
:1002800001491820ABBEFEE72600020070470000BF
:1002900070B5044600688168C943C90717D18168F1
:1002A00021F00101816000F0A9FB05460AE000BFD2
:1002B00000F0A4FB401B022804D920688068C043DA
:1002C000C00706D020688068C043C007F0D0002077
:1002D00070BDA06A40F01000A062E06A40F001002A
:1002E000E062012070BD0000F8B5002604460096CB
:1002F00000688168C943C9072DD0816841F00101B8
:100300008160164816490068B0FBF1F000E0401E1D
:1003100000900028FBD100F071FB054616E000BFFD
:1003200000F06CFB401B022810D920688068C04395
:10033000C0070BD0A06A40F01000A062E06A40F055
:100340000100E06284F824600120F8BD2068806824
:10035000C043C007E4D10020F8BD00001000002019
:1003600040420F00FEE7704772B6FEE7F8B5002482
:10037000009490F824202546012A12D0012280F80A
:1003800024204A681F23072A0DD20668776B521E65
:1003900002EB820293409F430B6893401F437763B5
:1003A00019E00220F8BD06680D2A0AD2376BD21F69
:1003B00002EB820293409F430B6893401F433763D5
:1003C00009E0F76A0D3A02EB820293409F430B6803
:1003D00093401F43F7620A68072306680A2A0AD374
:1003E000F7680A3A02EB420293409F438B689340BE
:1003F0001F43F76008E0376902EB420293409F43D6
:100400008B6893401F4337610A68102A01D0112A74
:1004100020D1124B02689A4217D193681B0219D45B
:10042000936843F4000393600968102912D10C49C2
:100430000C4A0968B1FBF2F101EB8101490000E0CF
:10044000491E00910029FBD104E0816A41F020019E
:100450008162012480F824502046F8BD0024014028
:100460001000002040420F000068C06C7047000080
:100470002DE9F0414FF0000704003D467ED0A06A10
:10048000002628B9E66284F82460204600F07EF851
:100490002046FFF7FDFEA16AC90600D420B1A06A7C
:1004A00040F01000A06269E0A16A21F4885141F097
:1004B0000201A1626268E169237B0A4347EA4301C2
:1004C0000A43A1684FF48077B94209D0012907D0C7
:1004D0005FF0000194F814C0BCF1010F02D00AE0F3
:1004E0003946F7E7F3B1A36A43F02003A362E36A56
:1004F00043F00103E3622368D3F804C02CF4694C91
:100500004CEA010CC3F804C021688B68DFF870C0A6
:1005100003EA0C0313438B60A168B9420BD0012995
:1005200009D00CE0DFF85CC0A3690CEB43330B434C
:1005300043F40061DFE7218A0D05A5F580152168E8
:10054000CB6A23F470032B43CB62216889680E4B7E
:100550001940914208D1E662A16A21F0020141F0FE
:100560000101A162BDE8F081A06A20F0020040F024
:100570001000A062E06A40F00100E0620120F1E7B3
:10058000FDF7E1FF00E0FFFFFE0E1FFF10B586B094
:10059000002100910191029103911A4C03681A49BC
:1005A00003221A48A34211D18B6943F400738B6173
:1005B0008B6903F4007304938B6943F004038B612C
:1005C000896901F004010491012113E0104CA34258
:1005D00015D18B6943F480638B618B6903F480636D
:1005E00004938B6943F004038B61896901F0040172
:1005F00004910221CDE90012694600F009F906B024
:1006000010BD00000024014000100240000801401D
:10061000002801402DE9F84300270D4604460097C5
:1006200000F0ECF9804620688168C90508D5A06A09
:1006300040F02000A06284F824700120BDE8F88317
:100640004168C90503D4C06A10F4700F2AD0022093
:1006500000F072FA3B490968B1FBF0F620680369C3
:1006600039490B424FEA61014FEAA1121FD1C36819
:100670004FEA611C13EA0C0F19D103690B4225D113
:10068000C068104222D1142023E0681C0AD02DB18A
:1006900000F0B4F9A0EB0800A84203D92068006874
:1006A000800725D5206800688007EED52DE0036916
:1006B0000B4202D1C168114206D0026923490A42A5
:1006C00006D1C068084203D1542002E0292000E08E
:1006D000FC204643009816E0681C11D02DB100F0B4
:1006E0008DF9A0EB0800A8420AD90098B04207D2C1
:1006F000A06A40F00400A06284F8247003209DE703
:100700000098401C0090B042E6D321686FF01200C0
:100710000860A06A40F40070A06220688068C0F39E
:10072000424007280CD1207B50B9A06A20F4807089
:10073000A062A06AC00403D4A06A40F00100A062D5
:1007400000207BE7100000202449922449922400D5
:1007500070B5044690F8240001280DD0012084F8DB
:1007600024002046FFF7C0FD02004FF0000005D036
:1007700084F82400104670BD022070BDA16A40F2CA
:100780000123994341F48071A1621F4D23681F49E1
:10079000AB4218D10E6816F4702F14D0A66A46F436
:1007A0008016A6620E68760505D5A66A26F4005660
:1007B00046F48056A662A66AF6040AD5E66A26F0D2
:1007C0000606E66206E0A66A26F48016A6625E6861
:1007D000E9E7E06284F824006FF002001860206806
:1007E0008368C3F34243072B05D1A84208D10968A7
:1007F00011F4702F04D0816841F480118160B9E751
:10080000816841F4A001F9E7002801400424014077
:100810002DE9F84FDFF8B8910024A9F1040B234625
:100820000F2709F1040AABF1040EC9E00125A54028
:100830002A40AA427DD1674ED1F804C0ACEB06082D
:10084000B44532D014DCBCF1030F3AD009DCBCF162
:10085000000F2AD0BCF1010F1CD0BCF1020F31D126
:100860001DE0BCF1110F17D0BCF1120F2AD119E015
:10087000B8F5881F19D006DCB8F5803F15D0B8F55B
:10088000801F1FD111E0B8F5001F0ED0B8F5041F6E
:1008900018D10AE0CB6815E0CB681B1D12E0CB68CD
:1008A00008330FE0CB680C330CE08B682BB1012BC5
:1008B0004FF0080303D0456104E0042302E0056122
:1008C00000E00023FF2A01D8064601E000F10406FB
:1008D0004FEA840501D9A5F12005D6F8008007FA72
:1008E00005FC28EA0C0803FA05F548EA0508C6F8ED
:1008F00000804D68ED0062D5374DAE6946F00106C7
:10090000AE61AD6924F0030605F001050095334D95
:1009100006EB050CDCF80850A607360F07FA06F8B8
:1009200025EA0805DFF8B880404503D14FF00008FC
:1009300017E044E0DFF8AC80404502D14FF00108F9
:100940000FE0DFF8A480404502D14FF0020808E034
:10095000DFF89880404502D14FF0030801E04FF0E6
:10096000040808FA06F848EA0508CCF808804D683B
:10097000D9F80060ED024D4601D5164300E09643DC
:100980002E604D68DAF80060AD02554601D5164379
:1009900000E096432E604D68DBF80060AD035D46D5
:1009A00001D5164300E096432E604D68DEF80060E6
:1009B000ED03754601D5164300E096432E60641C96
:1009C0000D682A46E5407FF431AFBDE8F88F00009E
:1009D0000804014000001110001002400000014016
:1009E00000080140000C01400010014000140140CB
:1009F0000AB1016170470904FBE700000148806803
:100A00007047000004000020024881680278114409
:100A10008160704704000020074810B5016841F06C
:100A200010010160032000F075F80F2000F006F8B7
:100A300000F024F8002010BD0020024070B50D4DDC
:100A400004464FF47A712878B1FBF0F00A4909683E
:100A5000B1FBF0F000F0A4FB48B9102C07D2002243
:100A60002146501E00F036F800206C6070BD012059
:100A700070BD000004000020100000200C4808B5E4
:100A8000816941F001018161816901F001010091F9
:100A9000C16941F08051C161C06900F0805000908F
:100AA0000448416821F0E06141F00071416008BDF7
:100AB0000010024000000140002809DB00F01F0286
:100AC000012191404009800000F1E020C0F80011B0
:100AD00070470000F0B40E4B1B680C46C3F30223B2
:100AE000C3F10705042D00D90425191D072901D2DA
:100AF000002300E0DB1E012606FA05F1491E214015
:100B000099409E40761E16403143F0BC01F0D1B8AA
:100B10000CED00E0064900F0070208684FF6FF03FD
:100B2000184040EA0220034A104308607047000062
:100B30000CED00E00000FA0510B501460020234C42
:100B4000012922D0022939D010291DD161682268DB
:100B5000D20119D51E48C1F38342C903805C0AD56E
:100B600061681B4AC1F34041921E515C194AB2FBB5
:100B7000F1F1484301E0184948436168490203D450
:100B800040000321B0FBF1F010BD226AC2F3012145
:100B9000012903D1920701D5C80310BD022905D14F
:100BA000626A920702D549F6404010BD0329FCD184
:100BB00021688903F9D54FF2244010BD00F02AF9CD
:100BC0006168C1F38131491C4900DBE70010024034
:100BD0002E20000800127A0000093D002DE9F8439C
:100BE00005460078354CC00754D0E0690026C000A7
:100BF00008D4E06940F08050E061E069012600F02F
:100C0000805000902E480168C90512D401688046C2
:100C100041F480710160FFF7F1FE074605E000BF77
:100C2000FFF7ECFEC01B642823D8D8F80000C005ED
:100C3000F6D5206A10F4407021D0A98801F44071E3
:100C400081421CD0206A1F49012220F440700A60B2
:100C500000220A602062C00711D0FFF7CFFE0746CE
:100C600041F2883808E000BFFFF7C8FEC11B4145CC
:100C700002D90320BDE8F883206A8007F4D5206AF2
:100C8000696820F44070084320621EB1E06920F0DA
:100C90008050E0612878800705D56068A96820F455
:100CA0004040084360602878C00605D56068E96860
:100CB00020F48000084360600020DBE70010024061
:100CC00000700040400442422DE9F0470F46050005
:100CD00061D0434E306800F00700B84209D2306856
:100CE00020F0070038433060306800F00700B84259
:100CF00051D128683B4C810712D5400703D5606865
:100D000040F4E06060602878000703D5606840F434
:100D1000605060606068A96820F0F000084360607F
:100D20002878C00728D06868012810D021680228D8
:100D300010D0890700292EDA616821F003010143F0
:100D40006160FFF75BFE804641F288390DE0216863
:100D50008903EFE78901EDE7FFF750FEA0EB0801FB
:100D6000494502D90320BDE8F0876068696800F052
:100D70000C00B0EB810FEFD1306800F00700B842F3
:100D80000BD9306820F0070038433060306800F03D
:100D90000700B84201D00120E5E72878400705D5D3
:100DA0006068E96820F4E060084360602878000724
:100DB00006D56068296920F4605040EAC10060608F
:100DC00000F038F86168084AC1F30311515CC8406B
:100DD0000649086006480068FFF730FE0020C2E7B9
:100DE00000200240001002403E20000810000020B9
:100DF000080000200448054900684968044AC1F316
:100E00000221515CC84070471000002000100240D1
:100E10004E2000080448054900684968044AC1F3A7
:100E2000C221515CC84070471000002000100240F1
:100E30004E2000080E4A51680E4801F00C03042BA6
:100E400011D0082B0FD10C48C1F38343C903C05CF8
:100E50000AD55168084AC1F34041921E515C054AC7
:100E60005043B0FBF1F0704704494843704700001D
:100E70000010024000127A001C20000800093D000A
:100E80002DE9F84F040070D02078C04DC00749D03C
:100E90006868C0F38100012807D06868C0F381004A
:100EA000022809D16868C00306D52868800339D5AF
:100EB00060680028E7D035E06068B0F5803F0BD06F
:100EC00010B1B0F5A02F11D0286820F48030286030
:100ED000286820F4802002E0286840F480302860F0
:100EE000606890B1FFF78AFD06460AE0286840F482
:100EF00080202860F0E700BFFFF780FD801B64289A
:100F000073D828688003F7D50CE0FFF777FD064615
:100F100005E000BFFFF772FD801B6428F0D8286849
:100F20008003F7D420789A4E80074FF001094FF0E4
:100F3000000839D5686810F00C0F07D06868C0F356
:100F40008100022809D16868C00306D42868800798
:100F500014D52069012808D110E02069B0B1C6F885
:100F60000090FFF74BFD074605E00AE1FFF746FD5D
:100F7000C01B0228C4D828688007F7D52868616993
:100F800020F0F80040EAC10028600DE0C6F80080BB
:100F9000FFF734FD074604E0FFF730FDC01B0228D1
:100FA00023D828688007F7D4207800072CD5794803
:100FB000A169D9B1C0F80090FFF720FD074604E011
:100FC000FFF71CFDC01B02280FD8686A8007F7D501
:100FD00071484FF4FA510068B0FBF1F0009000BF87
:100FE0000098411E0091FAD20EE080E0C0F8008027
:100FF000FFF704FD074604E0FFF700FDC01B0228D1
:1010000075D8686A8007F7D42078400760D5E8690A
:101010000027C00008D4E86940F08050E861E86922
:10102000012700F0805000905C480168C90513D486
:101030000168834641F480710160FFF7DFFC82465E
:1010400006E000BFFFF7DAFCA0EB0A0064284ED8E8
:10105000DBF80000C005F5D5E06801280AD008B12A
:10106000052813D0286A20F001002862286A20F0A1
:10107000040002E0286A40F001002862E06841F2C2
:10108000883B98B1FFF7BAFC82460BE0286A40F033
:1010900004002862EEE700BFFFF7B0FCA0EB0A01F6
:1010A00059455AD8286A8007F6D50CE0FFF7A6FC08
:1010B000824605E0FFF7A2FCA0EB0A0159454CD897
:1010C000286A8007F6D41FB1E86920F08050E861F3
:1010D000E06988B36968C1F38101022944D002281C
:1010E000C6F8608004D0FFF789FC044638E034E09D
:1010F000FFF784FC074604E0FFF780FCC01B0228D2
:101100002BD828688001F7D4206AB0F5803F05D13C
:101110006868A16820F4003008436860D4E90801D9
:101120000843696821F4741108436860C6F8609048
:10113000FFF764FC044606E025E000BFFFF75EFC15
:10114000001B022809D828688001F7D51BE000BFE2
:10115000FFF754FC001B022802D90320BDE8F88FDA
:1011600028688001F4D40EE00128F7D06868226A6C
:1011700000F48031914204D1616A00F47010884219
:1011800001D00120EAE70020E8E70000001002405B
:1011900000004242800442421000002000700040E3
:1011A00010B5401EB0F1807F01D3012010BD4FF07B
:1011B000E02460610F21601700F07BFD0020A0613A
:1011C00007202061002010BD7047704770B590F86F
:1011D0003C20012A26D0012480F83C40022280F8DD
:1011E0003D2003685A689D6822F070060A68324301
:1011F0005A600D4B02689A4208D0B2F1804F05D078
:101200000A4B9A4202D00A4B9A4204D1496825F00F
:1012100080031943916080F83D40002180F83C1024
:10122000084670BD022070BD002C01400004004043
:101230000008004090F83D10012901D001207047BE
:10124000022180F83D100168CA6842F00102CA60BC
:1012500000680B49884208D0B0F1804F05D0094999
:10126000884202D00849884204D1816801F0070110
:10127000062903D0016841F0010101600020704798
:10128000002C0140000400400008004070472DE998
:10129000F04104460068C66805694FF00007A907D9
:1012A00013D5B10711D5F91E0161012020772068FF
:1012B00080698007204602D0FFF7E8FF04E000F0D5
:1012C000CDF8204600F08EF92777680716D570070D
:1012D00014D521686FF0040008610220207720688F
:1012E000806910F4407F204602D0FFF7CFFF04E072
:1012F00000F0B4F8204600F075F92777280715D5D7
:10130000300713D521686FF00800086104202077AA
:101310002068C0698007204602D0FFF7B7FF04E0CD
:1013200000F09CF8204600F05DF92777E80616D516
:10133000F00614D521686FF01000086108202077AE
:101340002068C06910F4407F204602D0FFF79EFF5E
:1013500004E000F083F8204600F044F92777E8071E
:1013600008D0F00706D021686FF001000861204620
:1013700000F088F9280608D5300606D521686FF0F8
:10138000800008612046FFF71FFF680608D5700639
:1013900006D521686FF040000861204600F073F91F
:1013A000A8060AD5B00608D521686FF020000861AC
:1013B0002046BDE8F041FFF708BFBDE8F08100001E
:1013C00010B586B00021009101910291039102684D
:1013D0001D4802211D4CB2F1804F1CD01C4B9A427B
:1013E00017D1826942F0080282618069039100F09E
:1013F000080004901020CDE9000169461548FFF768
:1014000007FA606820F4406040F0E06040F400605B
:10141000606006B010BD826942F00402826180699A
:10142000039100F0040004904FF40040CDE9000166
:1014300069460948FFF7ECF9606820F4407040F015
:10144000E06040F48070E3E70010024000000140DB
:1014500000040040000C014000080140704770B5D6
:10146000044690F83C0000260D4601280FD00120CC
:1014700084F83C006AB1042A1DD0082A2FD00C2A17
:101480003FD00126002084F83C00304670BD022089
:1014900070BD206800F00EFB2068816941F00801F2
:1014A00081612068816921F004018161206881697E
:1014B0002A69114311E0206800F024FB206881694B
:1014C00041F4006181612068816921F4806181615A
:1014D000206881692A6941EA02218161D2E7206896
:1014E00000F03CFB2068C16941F00801C16120683F
:1014F000C16921F00401C1612068C1692A691143F1
:1015000011E0206800F056FB2068C16941F40061D9
:10151000C1612068C16921F48061C1612068C1692D
:101520002A6941EA0221C161ACE710B5040003D089
:1015300094F83D0010B107E0012010BD002084F8B0
:101540003C00204600F01EF8022084F83D00211DDA
:10155000206800F065FA012084F8460084F83E0017
:1015600084F83F0084F8400084F8410084F8420089
:1015700084F8430084F8440084F8450084F83D0072
:10158000002010BD08B501681448B1F1804F14D097
:10159000134A914220D1C16941F00201C161C06981
:1015A000002200F00200009011461D20FFF792FA81
:1015B0001D20BDE80840FFF77FBAC16941F0010175
:1015C000C161C069002200F00100009011461C209A
:1015D000FFF780FA1C20ECE708BD00000010024075
:1015E000000400407047000010B50446022249B1D3
:1015F00004290ED0082913D094F84100012816D0F0
:10160000012010BD94F83E000128F9D184F83E2055
:101610000FE094F83F000128F2D184F83F2008E061
:1016200094F840000128EBD184F8402001E084F8D0
:1016300041200122206800F02FFA0F4920688842DB
:1016400003D1426C42F4004242642068884208D0D0
:10165000B0F1804F05D00949884202D0084988423C
:1016600004D1816801F00701062903D0016841F027
:1016700001010160002010BD002C01400004004069
:10168000000800407047704770B5040004D094F81B
:101690004100002510B106E0012070BD84F84050E3
:1016A000204600F023F8242084F841002068C16817
:1016B00021F40051C160204600F09EFA20680169C3
:1016C00021F4904101612068416921F02A014161C2
:1016D0002068C16841F40051C1606564202084F82D
:1016E000410084F842006563002070BD30B585B0CC
:1016F00000240094019402940394006814498842E1
:1017000024D11448816941F480418161816901F4E7
:1017100080410491816941F00401816180690E4D2D
:1017200000F0040004904FF400700090022001903B
:101730000320039069462846FFF76AF82815CDE98B
:101740000004694628460294FFF762F805B030BDF0
:10175000003801400010024000080140FEE7000090
:101760003EB5002410480094019402940D49846011
:10177000016004730475012505614FF46021446024
:10178000C161FEF775FE08B1FEF7EEFDCDE900453B
:10179000694605480294FEF7E9FD002801D0FEF7EE
:1017A000E3FD3EBD00240140140000203EB50024AE
:1017B00010480094019402940D4984600160047300
:1017C0000475012505614FF460214460C161FEF795
:1017D0004FFE08B1FEF7C8FD0095CDE901546946FA
:1017E0000448FEF7C3FD002801D0FEF7BDFD3EBD55
:1017F000002801404400002030B585B0002418487E
:101800000094019402940394816941F02001816164
:10181000816901F020010491816941F00401816135
:10182000816901F004010491816941F0080181613D
:1018300080690C4D00F0080004900122F421284634
:10184000FFF7D6F8F42000900120CDE90104022032
:10185000039069462846FEF7DBFF05B030BD000067
:10186000001002400008014010B58AB0002407941F
:101870001C2168460894FEF7A7FC16484FF08041EB
:1018800001604721C0E9011440F21F31C0E903148F
:101890008461FFF74AFE08B1FEF766FD079407A9C9
:1018A0000C480894FFF792FC08B1FEF75DFD60203C
:1018B000CDE9000402940022694606480494FFF72B
:1018C000CEFD08B1FEF750FD0248FFF779FD0AB0E2
:1018D00010BD00007400002010B58AB000240794E9
:1018E0001C2168460894FEF76FFC164814490160F5
:1018F0004721C0E9011440F21F31C0E9031484619B
:10190000FFF713FE08B1FEF72FFD079407A90D4856
:101910000894FFF75BFC08B1FEF726FD6020CDE9D7
:10192000000402940022694606480494FFF797FDDC
:1019300008B1FEF719FD0348FFF742FD0AB010BDDC
:1019400000040040BC0000200C4810B50A490160AA
:101950004FF4E1314160002181600C22C160C0E997
:1019600004128161C161FFF78FFE002803D0BDE83A
:101970001040FEF7F9BC10BD003801400401002002
:10198000FEE7FEE770477047FFF73EB830B593B00B
:1019900028216846FEF718FC14210AA8FEF714FC5B
:1019A000002501200F9510951195010412958DE8E1
:1019B000230004904FF4E010CDE9081002240794AE
:1019C0006846FFF75DFA08B172B6FEE70AA90F2074
:1019D00081E831004FF48060CDE90D0502210AA8AD
:1019E000FFF772F908B172B6FEE74FF400401190AC
:1019F0000F940FA8FFF7F2F8002801D072B6FEE7A7
:101A000013B030BD704700000148FFF740BC000034
:101A1000740000200148FFF73ABC0000BC00002021
:101A2000F0B50268194B1A4C1A4D4FF08047984296
:101A300005D0B84203D0A04201D0A84203D122F081
:101A400070064A683243984205D0B84203D0A0429B
:101A500001D0A84203D122F44074CA6822434C69E1
:101A600022F08002224302608A68C2620A688262AF
:101A7000984201D109690163012141610169C907E6
:101A800003D0016921F001010161F0BD002C01408A
:101A9000000400400008004010B501F01F030121C0
:101AA000046A99408C430462016A9A4011430162BE
:101AB00010BD000030B5036A026A22F00102026222
:101AC0004268846924F073050C682C4323F00205F6
:101AD0008B682B430A4DA8420BD123F00805CB6835
:101AE00022F440722B434D6923F0040315438A69A5
:101AF0002A434260846149684163036230BD00004B
:101B0000002C014030B5026A036A23F0100303621F
:101B1000436884690D6824F4E64444EA05248D682A
:101B200022F0200242EA05120B4DA8420ED1CD68E8
:101B300022F0800242EA05124D6923F4406343EA31
:101B400085038D6922F0400243EA85034360846186
:101B500049688163026230BD002C014030B5036AE0
:101B6000026A22F4807202624268C46923F400733C
:101B700024F073050C682C438D6843EA05230C4D53
:101B8000A8420ED1CD6823F4006343EA05234D69D2
:101B900022F4405242EA05128D6923F4806342EA3E
:101BA00005124260C4614968C163036230BD000030
:101BB000002C014030B5046A026A22F480520262AD
:101BC0004268C3690D6823F4E64343EA05238D6840
:101BD00024F4005444EA0534064DA84204D14D696A
:101BE00022F4804242EA85124260C361496801647E
:101BF000046230BD002C014070B5044600680169E4
:101C0000E26821F44051114301612169A068084351
:101C1000616908432168CA6841F20C639A43024330
:101C2000CA6020684169A26921F440711143416191
:101C30001E492068884202D1FFF7ECF801E0FFF767
:101C4000D9F800EBC00101EB00126068642180004C
:101C5000B2FBF0F3B3FBF1F36FF018067343B2FB82
:101C6000F0F5B2FBF0F605EB8305322303EB051527
:101C7000B5FBF1F5B6FBF1F605F0F00505EB061541
:101C8000B2FBF0F6B2FBF0F0B0FBF1F06FF018022F
:101C9000504306EB800003EB0010B0FBF1F021682D
:101CA00000F00F002844886070BD0000003801403B
:101CB000FEE70907090E002804DB00F1E02080F8A8
:101CC0000014704700F00F0000F1E02080F8141DB0
:101CD0007047000070B515460E46C2B204210B488D
:101CE000FEF786FE304600F0C3F8094C2168C86252
:101CF000E0604FF0FF31304600F051F900F0B8F8E5
:101D0000216848630348056070BD00000008014079
:101D1000740000200000002070B515460E46C2B2C7
:101D200020210B48FEF764FE304600F0A1F8094C74
:101D30002168C862E0604FF0FF31304600F02FF9B3
:101D400000F096F8216848630348056070BD000004
:101D500000080140BC00002000000020FEF75CFEEF
:101D6000FFF714FEFFF748FDFFF7FAFCFFF71EFD33
:101D7000FFF7EAFDFFF778FDFFF7AEFD3448FFF708
:101D800059FA3448FFF756FA00213148FFF72CFC86
:101D900000213048FFF728FC2D494FF4FA700A68FB
:101DA000D0622C4AC8601368D862D0600968FA20F3
:101DB000486311684863DFF8A0A04FF0FF364FF486
:101DC000E7674FF448794FF4C7782448FEF7C0FC22
:101DD00031462248FEF71EFC2048FEF745FB85B23F
:101DE0001F48FEF7B5FC31461D48FEF713FC1C48A2
:101DF000FEF73AFB84B2A5F6C800B84203D24A46C1
:101E0000514601200BE0BD4202D84A46514605E04A
:101E1000A5F23975454504D8002211460020FFF788
:101E200059FFA4F6C800B84203D24A4651460120E1
:101E30000BE0BC4202D84A46514605E0A4F2397490
:101E40004445C2D8002211460020FFF765FFBCE7D9
:101E500074000020BC0000200000B44214000020E8
:101E600044000020014800F068B800BF0000C07FB7
:101E7000C10DD1F19E0206DB4FEA002343F000437F
:101E800023FA02F07047004207D54FEA4001B1F152
:101E9000FE4F02D24FF00000704710B500F007F877
:101EA00049922480002070476FEA200070470EF1AD
:101EB000020E2EF0030E5EF8044B244204D44FEAC7
:101EC0004102B2F17F4F11D84FEA4003B3F17F4F87
:101ED0000CD80ED14FEAD07CB2F17F4F0CEB4C0CFA
:101EE0000CF1020C08BF4CEBD17C04E04FF0080C65
:101EF00001E04FEAD17C0CEB4C0324FA03F404F02C
:101F00000704B4F1040C06D20EEB840CBDE81040BB
:101F10004CF0010C6047DFE80CF0070802024FF0BC
:101F20000040A0F5800010BD0846420018BFD2F165
:101F3000807288BF00F0004010BD0CF00F03092B29
:101F400008BF082000F051800A2B0BD0082B18BFC7
:101F5000704708BF1CF0400F0AD04FF000004FF050
:101F6000000170471CF0400F18BF4FF00040704751
:101F70001CF0100F08D020F0704300F07F4242EABE
:101F8000D3014FEA4370704700F0604021F07F4278
:101F900042EA000201F07F4040EA727070474FF061
:101FA000FF0212EAD0521CBF92F0FF038B42C2BF65
:101FB000D14200EBC1507047002A0AD0002B0BD051
:101FC000002900F00040A4BF40F0FE4040F40000B3
:101FD000704700F00040704743024FF00B0C18BFF1
:101FE0004CF0806C7FF43EAF70471CF4801F11D022
:101FF0001CF4E02F03D06FEACC31490070474FF05A
:102000004050EFF3008222F0704242EA000282F375
:10201000008870474FF0000070470102020304057A
:10202000060708090A0B0C0D0E0F1010010202031F
:102030000405060708090A0B0C0D0E0F101000000E
:102040000000000000000102030406070809000068
:1020500000000102030400007820000800000020B6
:1020600014000000280100088C2000081400002043
:102070009C0700004401000800000000010000006F
:0C208000100000000000000000127A00B8
:04000005080000ED02
:00000001FF
